{
  "contractName": "Token",
  "abi": [
    {
      "constant": true,
      "inputs": [],
      "name": "decimal",
      "outputs": [
        {
          "internalType": "uint256",
          "name": "",
          "type": "uint256"
        }
      ],
      "payable": false,
      "stateMutability": "view",
      "type": "function"
    },
    {
      "constant": true,
      "inputs": [],
      "name": "name",
      "outputs": [
        {
          "internalType": "string",
          "name": "",
          "type": "string"
        }
      ],
      "payable": false,
      "stateMutability": "view",
      "type": "function"
    },
    {
      "constant": true,
      "inputs": [],
      "name": "supply",
      "outputs": [
        {
          "internalType": "uint256",
          "name": "",
          "type": "uint256"
        }
      ],
      "payable": false,
      "stateMutability": "view",
      "type": "function"
    },
    {
      "constant": true,
      "inputs": [],
      "name": "symbol",
      "outputs": [
        {
          "internalType": "string",
          "name": "",
          "type": "string"
        }
      ],
      "payable": false,
      "stateMutability": "view",
      "type": "function"
    }
  ],
  "bytecode": "0x60806040526040518060400160405280600e81526020017f43484f4d544120424954434f494e0000000000000000000000000000000000008152506000908051906020019061004f9291906100c1565b506040518060400160405280600881526020017f6d43484d544254430000000000000000000000000000000000000000000000008152506001908051906020019061009b9291906100c1565b50601260025569d3c21bcecceda10000006003553480156100bb57600080fd5b50610166565b828054600181600116156101000203166002900490600052602060002090601f016020900481019282601f1061010257805160ff1916838001178555610130565b82800160010185558215610130579182015b8281111561012f578251825591602001919060010190610114565b5b50905061013d9190610141565b5090565b61016391905b8082111561015f576000816000905550600101610147565b5090565b90565b610310806101756000396000f3fe608060405234801561001057600080fd5b506004361061004c5760003560e01c8063047fc9aa1461005157806306fdde031461006f57806376809ce3146100f257806395d89b4114610110575b600080fd5b610059610193565b6040518082815260200191505060405180910390f35b610077610199565b6040518080602001828103825283818151815260200191508051906020019080838360005b838110156100b757808201518184015260208101905061009c565b50505050905090810190601f1680156100e45780820380516001836020036101000a031916815260200191505b509250505060405180910390f35b6100fa610237565b6040518082815260200191505060405180910390f35b61011861023d565b6040518080602001828103825283818151815260200191508051906020019080838360005b8381101561015857808201518184015260208101905061013d565b50505050905090810190601f1680156101855780820380516001836020036101000a031916815260200191505b509250505060405180910390f35b60035481565b60008054600181600116156101000203166002900480601f01602080910402602001604051908101604052809291908181526020018280546001816001161561010002031660029004801561022f5780601f106102045761010080835404028352916020019161022f565b820191906000526020600020905b81548152906001019060200180831161021257829003601f168201915b505050505081565b60025481565b60018054600181600116156101000203166002900480601f0160208091040260200160405190810160405280929190818152602001828054600181600116156101000203166002900480156102d35780601f106102a8576101008083540402835291602001916102d3565b820191906000526020600020905b8154815290600101906020018083116102b657829003601f168201915b50505050508156fea265627a7a723158202716ab8b30a21eb346806b4dcfae96bb2389e274c86ea19a37f8ffc05ffd854364736f6c63430005110032",
  "source": "pragma solidity ^0.5.0;\r\ncontract Token{\r\n    string public name=\"CHOMTA BITCOIN\";\r\n    string public symbol=\"mCHMTBTC\";\r\n    uint public decimal=18;\r\n    uint public supply=1000000000000000000000000;\r\n}",
  "sourcePath": "D:\\solidityHUEHUEHUE\\defi-staking-app-starter\\defi-staking-app-starter\\src\\contracts\\CHOMTABITCOIN.sol",
  "compiler": {
    "name": "solc",
    "version": "0.5.17+commit.d19bba13.Emscripten.clang"
  },
  "schemaVersion": "3.4.7",
  "updatedAt": "2022-09-03T02:15:05.440Z",
  "devdoc": {
    "methods": {}
  },
  "userdoc": {
    "methods": {}
  }
}